:020000040000FA
:1000000000040020C1000000C5000000C70000007F
:1000100000000000000000000000000000000000E0
:10002000000000000000000000000000C900000007
:100030000000000000000000CB000000CD00000028
:10004000CF000000CF000000CF000000CF00000074
:10005000CF000000CF000000CF000000CF00000064
:10006000CF000000CF000000CF000000CF00000054
:10007000CF000000CF000000CF000000CF00000044
:10008000CF000000CF000000CF000000CF00000034
:10009000CF000000CF000000CF000000CF00000024
:1000A000CF000000CF000000CF000000CF00000014
:1000B000CF000000CF000000CF000000CF00000004
:1000C00006480047FEE7FEE7FEE7FEE7FEE7FEE73D
:1000D00003480449024A044B704700000103000032
:1000E00078010020780500207801002070477047D3
:1000F0007047000000000000000000000000000049
:1001000000000000000000000000000000000000EF
:1001100000000000000000000000000000000000DF
:1001200000000000000000000000000000000000CF
:1001300000000000000000000000000000000000BF
:1001400000000000000000000000000000000000AF
:10015000000000000000000000000000000000009F
:10016000000000000000000000000000000000008F
:10017000000000000000000000000000000000007F
:10018000000000000000000000000000000000006F
:10019000000000000000000000000000000000005F
:1001A000000000000000000000000000000000004F
:1001B000000000000000000000000000000000003F
:1001C000000000000000000000000000000000002F
:1001D000000000000000000000000000000000001F
:1001E000000000000000000000000000000000000F
:1001F00000000000000000000000000000000000FF
:1002000000000000000000000000000000000000EE
:1002100000000000000000000000000000000000DE
:1002200000000000000000000000000000000000CE
:1002300000000000000000000000000000000000BE
:1002400000000000000000000000000000000000AE
:10025000000000000000000000000000000000009E
:10026000000000000000000000000000000000008E
:10027000000000000000000000000000000000007E
:10028000000000000000000000000000000000006E
:10029000000000000000000000000000000000005E
:1002A000000000000000000000000000000000004E
:1002B000000000000000000000000000000000003E
:1002C000000000000000000000000000000000002E
:1002D000000000000000000000000000000000001E
:1002E000000000000000000000000000000000000E
:1002F000000000000000000000000000FFFFFFFF02
:1003000000F094FAC0250022004800000000002000
:1003100000480000DF000020027000486301002058
:100320000270004862010020027000486401002051
:10033000027000480E0100200123037000480000F5
:100340005801002002700048590100200270004846
:10035000A800002002700048A90000202B23037091
:1003600000480000AA00002002700048AB000020F6
:1003700003700048180000200123037000480000AB
:1003800038000020037000F0F0FD01230048000059
:10039000CF00002003700048680000200370004870
:1003A000AD000020962303700048000032000020BA
:1003B00001230370004800000D0000200370004876
:1003C0002E01002000220270FF230048C8000020F8
:1003D00003700048C900002003700048CA000020D4
:1003E00003700048CB000020037000F0E9FC00F02F
:1003F000BCFD00486101002000220270004800009E
:100400007001002002700048710100200270004855
:10041000040000200268322AE7D200F0D1FC00F08C
:10042000A4FD6E48002202706D48016980231940C6
:10043000802907D06B480178491C01706A48002266
:10044000027006E068480178491C01706548002286
:100450000270644802780A2A04D2634802780A2AA1
:10046000DBD205E061480123037046226048027038
:100470005B48016801239B03036001698023994362
:10048000016156480022027000F0DAFB00F06DFDB9
:1004900000F096FC57480278012AF5D353480178BA
:1004A000002900D002E04E48F023036100235248A7
:1004B0000370524803705248037052480370484812
:1004C000403040304030016980231940802902D0FB
:1004D0004D480123037006224C4802704C4800230B
:1004E000037032234B48037000BF00BF00BF00BF42
:1004F00000F045FD48480270302A04D3552A02D244
:1005000046480123037054234548037000224548A0
:1005100002704548027000F032FD00F030FD00F03E
:100520002EFD00F02CFD00F02AFD40480270EFF394
:10053000008001235B07984380F3008852103C48F9
:1005400002703C48027001233B4803703B48037033
:1005500000F015FD00233A4803700022394802706C
:1005600039480270394802700A2239480270542210
:100570002B480270374802701C480178012901D0CD
:100580001B48027000F0FBFC00F0F9FC1E480178EB
:10059000002921D030480178002906D001232F48B6
:1005A000037000232E48037005E001232C480370DC
:1005B00000232A48037000232A4803702A48037046
:1005C0002A4803702448037029480370294803709F
:1005D0002948037029480370104800006101002079
:1005E000004000507001002071010020180100201F
:1005F0005701002000000020C8000020C900002092
:10060000CA000020CB00002012010020470100207A
:100610000D000020F000002029010020DB00002058
:100620008F00002038010020390100202200002026
:10063000EE0000203100002013000020DA0000202E
:10064000CF0000205201002053010020540100205F
:100650005501002056010020F60000201501002061
:1006600016010020F8000020F7000020F50000200F
:1006700002010020030100200501002004010020E8
:10068000017800290DD000230370012300480000E9
:10069000680000200370962300480000AD00002091
:1006A000037000F06CFC00BF00BF00F05EFC22484D
:1006B0000178012907D02148017800291ED020485F
:1006C0000270002A0FD01F4802681F4801780129D4
:1006D0001FD01E480178002912D01D4801698023CF
:1006E0009943016115E01B4801780129EBD00023F3
:1006F000194803701148037000F041FC1748027854
:1007000011480178012904D0114801698023194357
:1007100001611348027000F032FC00F026FC00F08A
:100720008FFA00F01FFA00F020FC00F01EFC00BF62
:1007300000BFB6E700230B481A0100200B01002080
:100740005501002057010020180100200D00002055
:1007500000400050120000206400002056010020DC
:100760008F000020C800002003700048C90000204E
:1007700003700048CA00002003700048CB0000202E
:10078000037003480178002900D070477047014882
:100790002B00002043000020017800293BD00248B4
:1007A0000278062A3CD2014840010020EE000020D9
:1007B000027800483100002001788A420CD3EFF320
:1007C000008001235B07184380F30088ED4801781F
:1007D0008A41032A1FD20DE0EA480278EFF3008035
:1007E00001235B07184380F30088E74801788A41BA
:1007F000032A10D2E3480278E34801788A4205D3FD
:1008000003D0E0480178491E01707047DD48017847
:10081000491C01707047DC480278DA480270704762
:10082000DA4802785208D74802707047D848D94948
:100830000160D9490160D9490160D94AD94911609B
:10084000002101607047D84801680422114301600B
:1008500007210161816811438160816801221207CB
:100860001143816081681213114381604269032141
:1008700009068A43426142690A43426142690C2186
:100880008A43426142690A4342614269072109027F
:100890008A43426142690A43426105200007016BB5
:1008A00004221202121D08231B0208331A431140AE
:1008B000D2430163016BD243114301637047BB49CB
:1008C00008681520000210231843086000204860C3
:1008D0008860C86048618861C861086270200861EA
:1008E00040314020000208648020086140315520DA
:1008F00000024523184308600020886008614031E9
:100900000520431E000218430860002088604861EB
:100910008861C8610862322008614031F12000021C
:100920004523184308600120886004200861A0491D
:1009300008600868822108439D4908609A488068D9
:100940000121084398498860486903210843964972
:10095000486198490020886008680521C906084355
:1009600094490860162048600868000A0002633055
:100970000860914C08238A1522600868890308439F
:100980008C49086088488069FF2109048843150262
:1009900085494019886189490D200862486A496A79
:1009A000F826090A0902314308438449486282490A
:1009B0008031500508608248032636070821090265
:1009C0003143FE26314341627D490320C8604868B7
:1009D000012108437A49100120607A480168012604
:1009E000314301600168102631430160016820260F
:1009F000314301600168194301606B48C0693021CF
:100A000008436949C86188684903084366498860A2
:100A10006D484168402631434160016801263143F9
:100A200001608168D60031438160816891438160B3
:100A30000521090266273943C161490081618002AD
:100A4000806B5101084305210907886356484069B6
:100A5000032189070843544948618868090308430A
:100A60005149886059484168061531434160016821
:100A7000114301608168D702394381608168A943CD
:100A8000816000218162FF273F010F210F434762F0
:100A900005210907896B314305263607B163816853
:100AA0002943816049494031CD6B04263543CD63EC
:100AB0003D4D6D690326360735433B4E7561B5687C
:100AC00086003543384EB5604568456005680126A7
:100AD000354305608568C614354385608568954350
:100AE00085600025C561876105252D07AD6B46151D
:100AF000354305263607B563856815438560CA6B9F
:100B000002252A43CA63284A526903252D072A432E
:100B1000254D6A61AA6885002A43234DAA60426870
:100B200004252A434260026801252A430260826844
:100B30001A4382608268AA43826000220261C32253
:100B4000120250263243C260214A40321568012603
:100B500035431560826832438260C86B3043C86396
:100B60002360704709490A681A4B1C68A24206D0E4
:100B700054221A70002218490A7018490A707047E6
:100B80007047174931000020EE0000208F00002040
:100B9000000100505900000016000000880000000D
:100BA00024000050A55A00000002005000400050F0
:100BB000004000400000014000E100E000000E4065
:100BC0000000054000C00050000014400000044038
:100BD000000000502D010020CE0000200E0000205B
:100BE0002B0000200A78002A15D204490B78012234
:100BF0001340934200D20EE0014900001100002092
:100C0000140000200A78002A05D2002202490A7046
:100C1000012202490A7001492E0100200D00002026
:100C20000A78002A06D28822004900002401002008
:100C30000A70704780220049240100200A70704722
:100C400000490000180100200B6801221340934264
:100C500095D28322004900001E0100200A70002264
:100C6000004900001F0100200A7010220049000006
:100C7000200100200A7060220049000021010020AC
:100C80000A70142200490000220100200A700E227E
:100C900000490000230100200A70FFF772FF03489B
:100CA000016920229143016139210148004000502F
:100CB000CC000020017000BF00BF00BF00BF00BF1C
:100CC00000BF00BF00BF00BF004800000040005050
:100CD0000169102319430174EFF3008001235B07BE
:100CE000984380F300887E480178490001707D4870
:100CF0000178490001707C480178490001707B4807
:100D00000178490001707A480178490001707948FA
:100D100001784900017078480178490001707748EE
:100D2000016910239943017440D240229143017418
:100D300073480178491E01700278012ABBD1521E06
:100D40006F48027000BF00BF00BF00BF00BF00BF00
:100D500000BF6A48016910221143016100BF00BF52
:100D600000BF00BF10229143016100BF00BF00BF60
:100D700000BF00BF00BF00BF40229143016100BF20
:100D800000BF00BF10221143016100BF00BF00BFC0
:100D900000BF00BF00BF59480169F0220A7000BFC0
:100DA00000BF00BF00BF00BF00BF704753480169CC
:100DB000402211430161BBE7102252480270704784
:100DC00051480178002904D150480178002900D108
:100DD00003E04F48017800293BD14E4801780029B3
:100DE00037D14D480178002941D14C48017800297C
:100DF00058D14B480178002954D14A48017800293C
:100E000050D14948016800294CD14848017800294F
:100E100048D147480178002944D146480178002943
:100E200040D14548017800293CD144480178002947
:100E300038D143480178002934D14248017800294B
:100E400030D14148017800292CD14048002303705B
:100E500039E03F480178002935D13E480278622ABE
:100E60003D48642303703A48012303702BE039485E
:100E70000278782A0AD336480178002923D13648E7
:100E8000322303703248012303701CE0322A1AD245
:100E90003148322303702E48012303701E4800237B
:100EA000037010E01A4801780029CED02748017855
:100EB000002908D12548012303702748FA2303702D
:100EC00023480123037022480178002900D070478D
:100ED00011480178002902D11E48AF23037007484A
:100EE00024010020230100202201002021010020F4
:100EF000200100201F0100201E01002000400050A2
:100F0000CC0000206D010020D5000020D60000207C
:100F100011000020D30000206800002034000020D1
:100F20002F000020620000203A0000201101002064
:100F3000140100200A00002046000020400000208C
:100F40003F000020360000203E0000203D00002031
:100F500009000020AD000020AF00002040304030EC
:100F60000169402399430174704703B41049086034
:100F70000868822108430E49086003BC70470D4889
:100F8000016B0821016304200003016801229143E1
:100F90000160016811430160074881680821816090
:100FA0000548064A815800218150704700BF000063
:100FB0000040004000000050004000501C020000B3
:100FC0000000000000000000000000000000000021
:100FD0000000000000000000000000000000000011
:100FE0000000000000000000000000000000000001
:100FF00000000000000000000000000000000000F1
:1010000000000000000000000000000000000000E0
:1010100000000000000000000000000000000000D0
:1010200000000000000000000000000000000000C0
:1010300000000000000000000000000000000000B0
:1010400000000000000000000000000000000000A0
:101050000000000000000000000000000000000090
:101060000000000000000000000000000000000080
:101070000000000000000000000000000000000070
:101080000000000000000000000000000000000060
:101090000000000000000000000000000000000050
:1010A0000000000000000000000000000000000040
:1010B0000000000000000000000000000000000030
:1010C0000000000000000000000000000000000020
:1010D0000000000000000000000000000000000010
:1010E0000000000000000000000000000000000000
:1010F00000000000000000000000000000000000F0
:1011000000000000000000000000000000000000DF
:1011100000000000000000000000000000000000CF
:1011200000000000000000000000000000000000BF
:0411300000000000BB
:04000005000000C136
:00000001FF
