:020000040000FA
:1000000000020020C1000000C5000000C700000081
:1000100000000000000000000000000000000000E0
:10002000000000000000000000000000C900000007
:100030000000000000000000CB000000CD00000028
:10004000CF000000CF000000CF000000CF00000074
:10005000CF000000CF000000CF000000CF00000064
:10006000CF000000CF000000CF000000CF00000054
:10007000CF000000CF000000CF000000CF00000044
:10008000CF000000CF000000CF000000CF00000034
:10009000CF000000CF000000CF000000CF00000024
:1000A000CF000000CF000000CF000000CF00000014
:1000B000CF000000CF000000CF000000CF00000004
:1000C00006480047FEE7FEE7FEE7FEE7FEE7FEE73D
:1000D00003480449024A044B704700000103000032
:1000E0000000002000020020000000207047704740
:1000F0007047000000000000000000000000000049
:1001000000000000000000000000000000000000EF
:1001100000000000000000000000000000000000DF
:1001200000000000000000000000000000000000CF
:1001300000000000000000000000000000000000BF
:1001400000000000000000000000000000000000AF
:10015000000000000000000000000000000000009F
:10016000000000000000000000000000000000008F
:10017000000000000000000000000000000000007F
:10018000000000000000000000000000000000006F
:10019000000000000000000000000000000000005F
:1001A000000000000000000000000000000000004F
:1001B000000000000000000000000000000000003F
:1001C000000000000000000000000000000000002F
:1001D000000000000000000000000000000000001F
:1001E000000000000000000000000000000000000F
:1001F00000000000000000000000000000000000FF
:1002000000000000000000000000000000000000EE
:1002100000000000000000000000000000000000DE
:1002200000000000000000000000000000000000CE
:1002300000000000000000000000000000000000BE
:1002400000000000000000000000000000000000AE
:10025000000000000000000000000000000000009E
:10026000000000000000000000000000000000008E
:10027000000000000000000000000000000000007E
:10028000000000000000000000000000000000006E
:10029000000000000000000000000000000000005E
:1002A000000000000000000000000000000000004E
:1002B000000000000000000000000000000000003E
:1002C000000000000000000000000000000000002E
:1002D000000000000000000000000000000000001E
:1002E000000000000000000000000000000000000E
:1002F000000000000000000000000000FFFFFFFF02
:1003000000F056F800F018F800F05FF800F0ACF9D3
:10031000E148E24941610021816105210161E04933
:10032000E04A03691342FBD0491EF9D1DE49DF4A96
:100330008B58DB438B50F2E7DD4801680422114300
:100340000160072101618168114381608168012298
:100350001207114381608168121311438160426961
:10036000032109068A43426142690A4342614269A4
:100370000C218A43426142690A4342614269072172
:1003800009028A43426142690A434261052000072B
:10039000016B04221202121D08231B0208331A43A8
:1003A0001140D2430163016BD24311430163704793
:1003B000C048C1490160C1490160C1490160C14AE9
:1003C000C1491160002101607047B74908680520E4
:1003D0000860002048608860C86048618861C86122
:1003E00008624031052008644031152001380002C0
:1003F0001523184308600020886040315120000216
:1004000008600020886048618861C86108624031E6
:10041000FF204230086001208860AC49086008680D
:1004200002210843A9490860086880210843A749B8
:1004300008609F488068012108439D498860486999
:10044000032108439A494861A1490020886008684F
:100450000521C90608439E490860162048600868BF
:10046000000A0002633008609A4C08238A15226053
:10047000086889030843964908608D488069FF2110
:100480000904884315028A494019886192490D2060
:100490000862486A496AF826090A09023143084392
:1004A0008D4948628049403130044860052000078A
:1004B000406B0840052109074863486B3043486397
:1004C0008449803150050860844841628349032093
:1004D000C8604868012108438049100120608048B5
:1004E0000168012631430160016810263143016033
:1004F00001682026314301600168194301606C489E
:10050000C069302108436A49C861886849030843C3
:1005100067498860734841684026314341600168FB
:100520000126314301608168D600314381608168D2
:10053000914381600521090266273943C161490061
:1005400081618002806B510108430521090788639E
:10055000574840690321890708435549486188681D
:1005600009030843524988605F48416806153143D2
:1005700041600168114301608168D702394381609D
:100580008168A943816000218162FF273F010F211B
:100590000F43476205210907896B3143052636075A
:1005A000B1638168294381604F494031CD6B042696
:1005B0003543CD633E4D6D690326360735433C4ECA
:1005C0007561B56886003543394EB560456845604C
:1005D00005680126354305608568C6143543856086
:1005E0008568954385600025C561876105252D07D0
:1005F000AD6B4615354305263607B563856815434B
:100600008560CA6B02252A43CA63294A52690325B9
:100610002D072A43264D6A61AA6885002A43244D86
:10062000AA60426804252A434260026801252A43E1
:10063000026082681A4382608268AA438260002254
:100640000261C322120250263243C260274A40325E
:100650001568012635431560826832438260C86B95
:100660003043C863236070472048016B0821016351
:1006700004200003016801229143016001681143D5
:10068000016009488168082181600748074A81584C
:1006900000218150704700BF00E000E07FBB0000F8
:1006A000F401000000000100004000501C020000A6
:1006B0000002005000010050590000001600000028
:1006C0008800000024000050A55A000000400040AF
:1006D0000000014000E100E000000E400000054085
:1006E00000C0005000001440000004400000005012
:04000005000000C136
:00000001FF
